:020000040800F2
:1000000018080020B9020008292200082121000850
:1000100025220008391500083523000800000000DB
:100020000000000000000000000000003122000875
:100030003D150008000000002D22000835220008B0
:10004000D3020008D3020008D3020008D30200083C
:10005000D3020008D3020008D3020008D30200082C
:10006000D3020008D3020008D3020008D30200081C
:10007000D3020008D3020008D3020008D30200080C
:10008000D3020008D3020008D302000800000000D9
:10009000000000000000000000000000D302000883
:1000A000D3020008D3020008D3020008D3020008DC
:1000B000D3020008D3020008D3020008D3020008CC
:1000C000D3020008D3020008D3020008D3020008BC
:1000D000D3020008D3020008D30200080000000089
:1000E000D3020008D3020008D30200080000000079
:1000F000000000000000000000000000D302000823
:1001000000000000D3020008D3020008D302000858
:1001100000000000000000000000000000000000DF
:10012000D3020008D3020008D3020008D30200085B
:10013000D3020008000000000000000000000000E2
:10014000000000000000000000000000D3020008D2
:10015000D3020008D3020008D3020008D30200082B
:10016000D3020008D30200080000000000000000D5
:10017000000000000000000000000000000000007F
:1001800000000000D3020008000000000000000092
:10019000D302000800F002F800F07FF814A696E8F9
:1001A000000CB244B344DA4501D100F076F8BAE865
:1001B0000F000FA696E83000A5EB040504EB060738
:1001C000AAEB0704A7F101074FEA15154FEA34140B
:1001D000A4F10104AC4201D300F05FF813F0010F69
:1001E00018BFFB1A43F0010300F001F8DBE71847E2
:1001F0007825000098250000103A24BF78C878C1FF
:10020000FAD8520724BF30C830C144BF04680C601C
:1002100070470000704700000023002400250026DE
:10022000103A28BF78C1FBD8520728BF30C148BF59
:100230000B607047692900F04581642900F0428114
:10024000752900F03F816F2900F0D681782900F0F0
:10025000FD810368DB0928BF41F08001632900F0BC
:100260007283E32900F09883002070471FB502F0E5
:100270001FFA9DE8030000F0E7FE00F0A3FC040075
:100280000020002102F0FEF9401C606000F0D8FB65
:100290001FBD10B500F03DFC10BD00F06DFC114617
:1002A000FFF7E4FF02F05AF900F06AFE03B4FFF72B
:1002B000F0FF03BC01F086F8094880470948004771
:1002C000FEE7FEE7FEE7FEE7FEE7FEE7FEE7FEE706
:1002D000FEE7FEE704480549054A064B7047000063
:1002E0003922000895010008180200201808002093
:1002F000180400201804002053EA020C00F0698062
:100300002DE9F04B4FF00006002B1FBFB3FA83F529
:1003100003FA05F424FA05F65E4012BF1643B2FA5A
:1003200082F502FA05F4C5F120051EBF22FA05FC8C
:1003300044EA0C04203556EA044C4FEA144418BF32
:10034000641C4FF000084FF00009904271EB030C61
:1003500039D3002919BFB1FA81F701FA07F6B0FACB
:1003600080F700FA07F6C7F120071EBF20FA07FC46
:1003700046EA0C062037B6FBF4FCA7EB0507103F56
:1003800007F01F0BCBF120062CFA06F60CFA0BFB3C
:1003900044BFB3460026202FA4BF5E464FF0000B9B
:1003A0005BEA060C08BF4FF0010B19EB0B0948EB99
:1003B0000608ABFB027C06FB02CC0BFB03CCC01B8C
:1003C00071EB0C01C1E70B46024641464846BDE8C9
:1003D000F08B13B5084318BF4FF0FF300146AFF361
:1003E0000080BDE81C4070470FB4044910B503AA53
:1003F000029800F0B5FA10BC5DF814FB6C00002008
:1004000070B5044685690068C10601D5302600E054
:100410002026C00707D070BDD4E90121304690479F
:10042000206A401C20626D1EF6D570BD70B5044672
:1004300085690078C00707D170BDD4E9012120206B
:100440009047206A401C20626D1EF6D570BD096879
:100450004A0501D540B27047C905FCD500B27047C6
:1004600009684A0501D5C0B27047C905FCD580B2FC
:10047000704770B50C460546012A05D028788006DD
:1004800000D5EA69002302E0012305E05B1C9342EA
:1004900002D2E05C0028F9D1A869E618C01AA86168
:1004A000286A184428622846FFF7AAFF04E0D5E925
:1004B000012114F8010B9047B442F8D32846FFF706
:1004C000B5FF70BD2DE9F04106460024106875297E
:1004D000314616A510D0FFF7BAFF002802DA4042D5
:1004E00013A507E031688A0701D512A502E0490784
:1004F00004D511A5012401E0FFF7B2FF00210A2273
:1005000006F1240709E0B0FBF2FCB0FBF2F302FBBA
:100510001C00303078541846491C0028F3D123467B
:100520002A463046BDE8F04100F0AAB900000000BC
:100530002D0000002B000000200000002DE9FF5FCF
:1005400015468A460446DFF8AC80F8440027D8E90F
:1005500000103E46CDE9001010E03AF816106A4649
:1005600002A800F025FA411C07D02178890603D59E
:10057000E269391891420DD80744761C207880062C
:1005800002D5E069B84205DDAE42E6DB3AF8160076
:100590000028E2D1A069C01BA0612046FFF730FF10
:1005A000D8E90010CDE90010002017E03AF8181043
:1005B0006A4602A800F0FCF9B0F1FF3F81460BD07B
:1005C00000250DF1080B05E0D4E901211BF8050019
:1005D00090476D1C4D45F7D308F10100B0428046AD
:1005E000E4DB206A384420622046FFF71FFFBDE8A5
:1005F000FF9F00007E21000070B504462146106870
:10060000FFF72EFF002104F1240505E000F00702AA
:100610003032C0086A54491C0028F7D120680023F2
:1006200008A2050708D500F02000084304D0E069BF
:10063000012305A2401EE0612046BDE8704000F0A5
:100640001FB90000000000003000000070B5044633
:100650000D4621461068FFF703FF2188090502D5E2
:100660000F4A7A4402E00E4A7A440E32002104F125
:10067000240305E000F00F060009965D5E54491C56
:100680000028F7D120780023000704D5702D02D070
:1006900009B1022311322046BDE8704000F0F0B8E5
:1006A0006E2000002DE9F05F894604464FF0000AF5
:1006B000DFF874B1FB44C0F820A02046E168884709
:1006C000002874D0252806D0D4E901219047206A5B
:1006D000401C2062F1E700265F462046E16888471B
:1006E0002028054607DB312D05D2781910F8200C9B
:1006F00008B10643F1E7B00701D526F00406C4F8B7
:100700001CA00027C4F818A02A2D09D0284601F003
:10071000A4FF38B304EB8708303DC8F8185019E03F
:1007200059F8041B204604EB87029161E168884771
:10073000012F054618D1E069002820DA26F02006AE
:100740001DE0D8F8180000EB800005EB40003038C1
:10075000C8F818002046E1688847054601F07DFF8B
:100760000028EED1012F0AD02E2D08D12046E168B5
:1007700088477F1C0546022F46F02006C4DBA0698F
:10078000002803DA404246F00106A061F00701D0DC
:1007900026F010066C2D0BD0682D09D04C2D39D0C9
:1007A0006A2D35D0742D35D07A2D33D016E038E04F
:1007B000E1682F4620468847B842054609D16C2F8C
:1007C00026D04FF48060E1680643204688470546FE
:1007D00004E06C2F1AD04FF4807006430DB3A5F1DE
:1007E0004100192802D8203546F400664A462946B9
:1007F000204626604E46FFF71DFD80B101280BD034
:10080000F61D26F0070000F1080956E74020E4E74E
:100810008020D8E70020D6E706F104094DE72846F6
:1008200052E7206ABDE8F09F442000004FF000022C
:1008300000B5134694469646203922BFA0E80C50D6
:10084000A0E80C50B1F12001BFF4F7AF090728BFB1
:10085000A0E80C5048BF0CC05DF804EB890028BF2D
:1008600040F8042B08BF704748BF20F8022B11F056
:10087000804F18BF00F8012B7047704770477047D2
:100880002DE9F0470D4699469246044600F12408AA
:100890000168880604D5E06921F01001216000E0BC
:1008A0000120A84201DD471B00E00027A1697A1959
:1008B00002EB0900081AA0612078C00602D4204685
:1008C000FFF79EFD002608E0D4E901211AF8060092
:1008D0009047206A401C761C20624E45F4DB20784D
:1008E000C0060AD52046FFF78BFD06E0D4E90121BA
:1008F00030209047206A401C2062381EA7F1010773
:10090000F4DC07E0D4E9012118F805009047206ADB
:10091000401C2062281EA5F10105F3DC2046FFF7EC
:1009200085FD2078000602D50220BDE8F087012071
:10093000FBE710B5436913B1AFF3008001E0FFF7A7
:1009400098FD012010BD127800F124010A700022E8
:100950004A700122EDE711684FF0FF32E9E700002D
:10096000074B70B50D467B4400F053F8044628460B
:1009700000F062F810B14FF0FF3070BD204670BD3E
:10098000FF1C000010B5436913B1AFF3008001E014
:10099000FFF7D4FD012010BD128800F124018284EC
:1009A0000022C2840122EDE711684FF0FF32E9E72F
:1009B0002DE9F04116460C46054600F01DF8036887
:1009C00093F80101012807D0FF2C12D8185D80B1DF
:1009D00001202C70BDE8F081D3F807013246214692
:1009E00003F20713C7182846BC46BDE8F0410023B0
:1009F00060474FF0FF30EDE710B500F0E3F8001D61
:100A000010BD00BF811C000001694A1C026108780A
:100A1000704700B58FB0CDE901310021059105493E
:100A20007944CDE9031011466846FFF73BFE0FB04D
:100A300000BD0000E5FFFFFF007B00F08000704775
:100A400010B542485421FFF7F1FE41485421FFF709
:100A5000EDFE40485421FFF7E9FE3F493B483C4A40
:100A60003F4B08603D490A603A491960531C0365D1
:100A7000481C1065012008653B48344A39A1784478
:100A800000F0E0F920B9384878440A3800F081FADB
:100A900037482F4A35A1784400F0D4F920B93448BA
:100AA00078440A3800F075FA32482A4A2FA178446F
:100AB00000F0C8F920B92F4878440A3800F069FAE4
:100AC00040232248DC000021224600F097F920B1A3
:100AD00025487844543800F05CFA1D4822464023EB
:100AE000002100F08BF920B121487844543800F0FF
:100AF00050FA184822461023002100F07FF9002800
:100B000006D01C487844BDE81040563800F041BA81
:100B100010BD104870B5006D20F001040B4800F0C6
:100B200009FA0B4800F006FA0A4800F003FA09E057
:100B3000206D20F00105204600F0FCF9204600F071
:100B400045F82C46002CF3D170BD000018000020A1
:100B50006C000020C00000200000002004000020E5
:100B600008000020720000008B1C000077000000CD
:100B7000771C0000631C0000754600F045FAAE4685
:100B800005006946534620F00700854618B020B599
:100B9000FFF7A0FBBDE820404FF000064FF0000734
:100BA0004FF000084FF0000BAC46ACE8C009ACE8D1
:100BB000C009ACE8C009ACE8C00921F007018D46C6
:100BC00070470000004870473401002070B50446AB
:100BD000051F00F01DFA0068002C14BF446870BDAA
:100BE000002C18BFAC423CBF20466468F8D30168B3
:100BF0000A18AA4218BF456003D12A680546114465
:100C0000016028684119A1421CBF6C6070BD616819
:100C1000696021680844286070BD2DE9F05F0546D1
:100C200017460C46C86820F4201040F48000C860C5
:100C3000800602D5084600F044FBE06841F28201DC
:100C40004FF0FF3A0140022903D0204600F0D6FAC7
:100C5000B9E000F42041B1F5004F0FD1C00306D533
:100C60006168E06A884200D80846606006E0206952
:100C7000E0626060606900F0C0F9A061A0680022D5
:100C8000EEB200280DDAE1688B050AD4C043A060FB
:100C900041F490302260E0606068411C6160067041
:100CA000AAE0E0689146226040F40050E0602069CC
:100CB00078BB606900F093F904F124054FF0010856
:100CC000A8B1A08910F4407F08D0E06900F0EBF9EA
:100CD000206118B1E06840F4006017E0C4F81C809F
:100CE0002561E06820F4407040F480600EE0E06927
:100CF00000F0D9F900282061F0D0E06840F40060ED
:100D000010F4407FE06002D140F48070E060206920
:100D10006060E06825696FF0010BC1051ED5616850
:100D2000E06A884200D80846411B04D02246284683
:100D300000F06EFAE8BB1FB1E562C4E9015959E061
:100D4000681CE0626060E069401EA060E06840F4FA
:100D50008030E06030462E70BDE8F09F17B100F49F
:100D600080320AE06068411C61600670E0680A2E0B
:100D700040F48030E06006D00022E16A6068814281
:100D800003D90B4602E00122F7E70346B4F80CC092
:100D90005B1B5FEA4C5C04D4D4F81CC09C4500DDAE
:100DA00002B3814200D80146002BA1EB0008E562A6
:100DB00000E008E0C4E9015907DD2246194628464B
:100DC00000F026FA08B15046C6E7B8F1000F09D086
:100DD000A169E5626560A1EB0800A061E06840F0F0
:100DE0001000E06047B16168A069E562491B0844F2
:100DF0006560A0615846AFE73046ADE770B5C4689E
:100E0000A50713D0650211D4B2F5807F09D0B2F5E1
:100E1000007F06D0B2F5806F08D1012300F12401D4
:100E200006E05D1E6FF07F46B54201D3012070BD24
:100E30000161C361416024F470611143C16000200D
:100E400070BD00002DE9F0410C461646070047D062
:100E5000104600F06FF82078611C61280AD07228D3
:100E600002D077283CD102E00125002405E00225CC
:100E7000042402E0082448F2020511F8010B2B2893
:100E800006D0622809D011F8010C74280AD00BE0B2
:100E900045F0030544F00204EFE745F0040544F093
:100EA0000104EAE744F010043846214600F078F8DF
:100EB000411C15D00021316171604FF40071F56063
:100EC000F1617061200704D530460222002100F054
:100ED00019F9306D40F0010030653046BDE8F08111
:100EE0000020FBE72DE9F0410D460646104C206D31
:100EF000C10704D0410804D020F00104F7E72246DE
:100F00000EE0542000F0CFF807000ED0206D47F01F
:100F100001010843542120653846FFF787FC3A4613
:100F200029463046BDE8F0418CE70020D6E70000B6
:100F3000180000202DE9F04704464FF0FF38002646
:100F4000C568D4E90497A80718D0204600F096F9A0
:100F5000384600F02FF8002800DA4646280502D56A
:100F60004846FFF733FE4C212046FFF75FFC206D1B
:100F700020F0010020653046BDE8F0874046FBE7E1
:100F800010B50446AFF300802046BDE81040FFF7DF
:100F90008DB910B500F0BCF9BDE8104000F0B2B951
:100FA0000EB5CDE9000100F075FA02906946012006
:100FB000ABBE0EBD08B5694600900220ABBE08BDB1
:100FC0001FB58DE8070069460520ABBE04B010BD13
:100FD0001FB58DE80F0069460620ABBEF6E708B5E1
:100FE000694600900920ABBE08BD1CB5CDE90001E3
:100FF00069460A20ABBE1CBD704708B56946009023
:101000000C20ABBE08BD0000004870471401002052
:10101000004870471C0100207047704770477047B8
:1010200038B504460A4600206946AFF30080002820
:1010300008BF38BD02460099204600F0D0F90120D3
:1010400038BD012000F01FBAF8B5AFF300800546A7
:1010500000200C460C2000BF0646A819A0420DD95E
:10106000324669460020AFF30080070008BF00F059
:101070000AFA0098A04218BF0546C419FFF7C8FF36
:1010800005600746F01D20F007004619284600F0CD
:10109000A0F9B44208BFF8BDA21B31463868BDE8CC
:1010A000F84000F09CB970B50646FFF7B1FF05683F
:1010B00006F10B0020F00704B4429CBF002070BD75
:1010C0002B466A68BAB11068A04210D304F1080137
:1010D00088423CBF5068586007D35168101941607E
:1010E0001168091B016058601460101D70BD134623
:1010F0005268002AE7D121462846FFF791FF0028D1
:10110000DED170BD2DE9F041044616460D46476913
:10111000007B80072ED03846FFF761FF50BB3EB3FF
:10112000012E02D0022E25D104E0204600F071F9F4
:1011300005441DE03846FFF760FFE168002841F0F4
:101140001001E16005DA204600F058F80120BDE802
:10115000F081C9030BD56268E16A914200D811465B
:10116000A26911442269891A814200DD08460544BA
:10117000002D01DA0220EAE7E16A6068E268814254
:1011800006D29103E06203D522F4003141F010024F
:10119000A6690027AE4213DCE16A814201D90B4601
:1011A00000E0034603EB060C2369ACEB030CAC45F3
:1011B00006DD814201D98C4600E084469C4505D17C
:1011C000A760276042F02000A5620DE0AD1BE66934
:1011D000AE1B8142A66000D90846C01A281A2060BA
:1011E0005819606022F0200003490840E0600020A8
:1011F00084F84870ABE70000BFCFD7FFC16821F487
:10120000001141F08001C1600021816001607047E0
:101210002DE9F74F15460C464FF0FF3B3848D7688D
:10122000D2F814A0074209D05046A969FFF7DDFEA5
:10123000002819DB3248C0430740EF604FF00049F7
:101240006FF000484C4501D3464600E02646009921
:101250003B4650463246FFF7B3FEA96920F00042F4
:10126000B21A1144A96128B12846FFF7C7FF5846B2
:10127000BDE8FE8FA41BE5D10020F9E770B5044658
:101280000569C06A6168884200D80846E16821F4AF
:101290002011E160C90312D5A84208D02246411BA3
:1012A0002846FFF7B5FF10B14FF0FF3070BD0020AA
:1012B000E562C4E90150E06820F48030E06000207D
:1012C00070BD10B50446C06820F02000E060A16A3F
:1012D000A06988420DD02046FFF7D0FFE06820F4D7
:1012E000405040F01000E060A06AA0612069E06218
:1012F000606044F24001E0688843E06010BD000097
:1013000010000200002801D000F05CB87047000017
:1013100010B5014602A000F09DF8012010BD0000AC
:1013200053494752545245443A20526564697265A4
:1013300063743A2063616E2774206F70656E3A2083
:10134000000000000000000030B44FF0013C50F8F5
:10135000042B51F8043BCCFA52F4D51A20D1FCB935
:1013600050F8042B51F8043BCCFA52F4D51A17D19B
:10137000B4B950F8042B51F8043BCCFA52F4D51A06
:101380000ED16CB950F8042B51F8043BCCFA52F44E
:10139000D51A05D1002CDAD030BC4FF000007047D0
:1013A00029BAB1FA81F111F01801D1F1200084407D
:1013B000F2D1CA40CB4012F0FF0213F0FF0330BC61
:1013C000D01A704701491820ABBEFEE72600020084
:1013D000704700210160416070470C207047034650
:1013E00040688C46002818BF88423CBF03464068CE
:1013F000F8D318681844884207D00CF1030020F095
:101400000700001D411A521A0146081D0A60FFF725
:10141000DDBB10B50146C268900703D0900607D522
:10142000886A0AE000F05CF801210160881E10BDA6
:101430008B69486818440B69C01A91F848301BB191
:1014400091F84910401A10BD1103FCD50028FADDAF
:10145000401E10BD70B505460C460A2000E06D1C0C
:1014600000F037F835B128780028F8D102E0641C84
:1014700000F02FF814B120780028F8D1BDE87040B2
:101480000A2000F026B810B500F02EF8BDE8104094
:10149000FFF738BF10B5431C02E010F8011B71B113
:1014A0008107FAD14FF0013202C88C1A8C4314EA3A
:1014B000C211F9D0C01A0A0603D0C01E10BDC01A4E
:1014C00010BD0A0401D0801E10BD0902FCD0401ED0
:1014D00010BD08B569468DF800000320ABBE08BDFD
:1014E000004870471401002010B5012805D00021E4
:1014F00003A0FFF7AFFF012010BD09A1F8E700002E
:1015000053494752544D454D3A204F7574206F66EC
:101510002068656170206D656D6F72790000000054
:101520003A2048656170206D656D6F727920636F38
:101530007272757074656400FEE700007047000009
:1015400072B600BFFEE70000B0B5044600F0E6F852
:10155000054640F20C00C2F200000078611C18BF82
:10156000044400BF00F0DAF8401BA042FAD3B0BD3B
:101570002DE9F04F83B000F1200200F13E4741F227
:101580000005009207F1FF77C4F2020507224FEA37
:10159000B726A84208BF042200254FF000084FF0EC
:1015A0000009042E38BF4FEAB72201920AE000BFBB
:1015B00009F1010908F10208B9F1100F05F104055C
:1015C00000F0A2800F68012202FA09FE17EA0E0A53
:1015D000EED0D1F804C003220CF003077E1E02FAFD
:1015E00008F4012E6FEA040B12D88468CE6804EA6E
:1015F0000B0406FA08F634438460446824EA0E06B5
:10160000CCF3001404FA09F42643466004E000BF5A
:10161000032F01D103271EE0C6688C6806EA0B067B
:1016200004FA08F42643022FC66014D16FF00302B7
:10163000009E02EA590756F807C005F01C040F2265
:101640000B69A2402CEA0202A3401A43F251D1F8DE
:1016500004C00CF00307026807FA08F302EA0B0261
:101660001A431CF4403F0260A2D0002243F6440318
:101670000292C4F202031A6843F6004442F4804224
:101680001A601A68C4F2010402F480420292029ABB
:1016900029F003024FF6084C2244CFF6FF7C52F8A3
:1016A0000C3005F00C070F26BE40B343019E06FA2E
:1016B00007F73B4342F80C30A2684B6842EA0A073E
:1016C00043F60C4CDE0258BF22EA0A07A760C4F2B8
:1016D000010CDCF800209E0242EA0A0758BF22EA09
:1016E0000A07CCF8007062689E0342EA0A0758BFF6
:1016F00022EA0A0767602268DB0342EA0A0758BF4A
:1017000022EA0A07276053E703B0BDE8F08F000024
:10171000002A08BF090481617047000040F21420CC
:10172000C2F2000000687047002804BF0120704723
:10173000F0B581B0044690F83D0028B9002084F847
:101740003C00204600F0A2F8242084F83D002068E8
:10175000016821F001010160016841F4004101606C
:10176000016821F40041016000F022FA636848F248
:10177000A16CC0F2010C40F60011C0F23D016345BE
:101780003CBF48F28041C0F21E01884202D20120D3
:1017900001B0F0BD4DF68361C4F21B31A0FB011214
:1017A0002168970CD1F804E04FF496762EF03F05AF
:1017B00045EA92454D60774348F638160D6AC0F207
:1017C0004106A7FB067625F03F07634538BF960C18
:1017D000721C3A430A62CA6948F2A0664CF6FF7767
:1017E000C0F20106B34222EA07020BD801385B00BF
:1017F000B0FBF3F001306FF31F30042898BF0420D2
:101800001BE000BFA768013857B119277B43B0FB25
:10181000F3F001306FF31F3070B100F5804007E046
:1018200003EB4303B0FBF3F001306FF31F3018B14B
:1018300000F5004001E000BF01201043C8610868C6
:10184000D4E9072320F0C0001043184308608868DB
:1018500048F2FF3204F10C0790438CCF1843104339
:10186000A6698860C86820F0FF0038433043C8602C
:10187000086840F00100086000202021206484F8FE
:101880003D10206384F83E0001B0F0BDB0B586B0D5
:1018900045F200410068C4F200010024884205942A
:1018A000CDE903440294019402D006B0B0BD00BF5C
:1018B00043F630050094C4F20205286840F00200A7
:1018C0002860286800F0020000900098C020019075
:1018D0001220CDE90204032004900420059001F5B4
:1018E000D83001A9FFF744FE0094286940F40010A5
:1018F0002861286900F400100090009806B0B0BD7F
:1019000040F20C0040F21421C2F20000C2F20001C9
:1019100000780A68104408607047000080B543F6FC
:101920000040C4F20200016841F4007101600168E6
:1019300041F480610160016841F48071016003201D
:1019400000F074F80F2000F005F800F027F80020F0
:1019500080BD000070B540F20C06C2F2000640F2F5
:1019600014013278C2F200014FF47A730968B3FBB4
:10197000F2F20446B1FBF2F1084600F04FFB0F2CE7
:101980004FF0010508D838B94FF0FF30214600224A
:10199000002500F01FF87460284670BD82B000205A
:1019A00043F640010190C4F202014A6842F48042C9
:1019B0004A604A6802F480420192019A00900868E5
:1019C00040F080500860086800F080500090009857
:1019D00002B0704710B54EF60C5CCEF2000CDCF88D
:1019E0000030C3F3022E8EF00704042C28BF042419
:1019F000BEF103034FF0FF3E0EFA04F438BF00239C
:101A0000A14399400EFA03F39A43114300F00F02E9
:101A100000F160430901043A03F56443624400287D
:101A200048BF02F10C03197010BD00004EF60C51B6
:101A3000CEF200010A684FF6FF031A4060F30A2253
:101A400042F0806040F0FD7008607047002804BFDD
:101A5000012070472DE9F04143F60808C4F202085E
:101A60000446D8F8F8030D4600F00700814207D974
:101A700088F8F853D8F8F80300F00700A84277D1A7
:101A80002068810717D5410705D5D8F8001041F423
:101A9000E051C8F80010010705D5D8F8001041F44E
:101AA0006041C8F80010D8F80010A26821F0F001D9
:101AB0001143C8F80010C00740D1D8F8F80300F06F
:101AC0000700854207D288F8F853D8F8F80300F0E9
:101AD0000700A8424CD12068410707D5D8F800106C
:101AE000E26821F4E0511143C8F80010000708D55E
:101AF000D8F80000216920F4604040EAC100C8F82D
:101B0000000000F07DF8D8F8001042F21972C1F31D
:101B10000311C0F60002515C40F2140220FA01F1F8
:101B200040F21000C2F200000068C2F20002116030
:101B3000FFF710FF0020BDE8F08100BF6068811E44
:101B4000022907D258F8081C89015CBF0120BDE8B2
:101B5000F08111E0012807D158F8081C89035CBF07
:101B60000120BDE8F08107E058F8081C890703D47C
:101B70000120BDE8F08100BFD8F8001021F003017A
:101B80000843C8F80000FFF7C9FD064641F2883750
:101B9000D8F80000616800F00C00B0EB810F8CD029
:101BA000FFF7BCFD801BB842F2D90320BDE8F081ED
:101BB00040F2140043F60801C2F20000C4F2020130
:101BC0000068096842F22972C1F38221C0F600025E
:101BD000515CC8407047000040F2140043F6080111
:101BE000C2F20000C4F202010068096842F22972E0
:101BF000C1F34231C0F60002515CC840704700009A
:101C000010B543F60404C4F202046168C1F3810113
:101C100042F20040C0F2F400DFE801F002040A02E0
:101C200010BD00BF47F64000C0F27D1010BD00BFE0
:101C3000206821682368490247F64001C0F27D11FF
:101C400000F03F02C3F388105CBF42F20041C0F2D3
:101C5000F401A1FB00010023FEF74EFB21680222E4
:101C6000C1F3014102EB4101B0FBF1F010BD0000F6
:101C7000002804BF012070472DE9F04182B00446DE
:101C8000007843F60006C007C4F202060CD0B06824
:101C900000F00C00042840F081803068800303D5F8
:101CA0006068002800F06881207880071BD5B06844
:101CB00010F00C0F09D0B06800F00C00082840F0BC
:101CC00087807068400200F183803068800703D508
:101CD000E068012840F050813068216920F0F80068
:101CE00040EAC10030602078000713D42078400714
:101CF0002AD4A569002D00F03A81B06800F00C00EC
:101D0000082840F0A580012D40F00E81012002B08E
:101D1000BDE8F0816069002800F082800020C4F2F4
:101D200047200121C0F8801EFFF7F8FC054600BFE0
:101D3000706F8007DAD4FFF7F1FC401B0228F7D957
:101D4000032002B0BDE8F081306C5FEAC0080AD41D
:101D500000200190306C40F080503064306C00F016
:101D600080500190019847F20007C4F200073868DC
:101D7000C00547D4386840F480703860FFF7CEFC67
:101D8000054600BF3868C0053CD4FFF7C7FC401BC0
:101D90000228F7D9032002B0BDE8F081B06800F056
:101DA0000C00082803D1706840023FF576AF6168E7
:101DB0003068B1F5803F07D0B1F5A02F40F09A8090
:101DC00040F480203060306840F4803030609AE029
:101DD000E068002840F20000C4F247205CD00121F6
:101DE0000160FFF79BFC0546306880073FF574AF44
:101DF000FFF794FC401B0228F6D9032002B0BDE88F
:101E0000F08100BFA168306F012905D0052955D1A7
:101E100040F004003067306F40F00100306756E05A
:101E20000020C4F247200021C0F8801EFFF776FC96
:101E3000054600BF706F80077FF558AFFFF76EFC57
:101E4000401B0228F6D9032002B0BDE8F08100BF94
:101E50000027C4F2472700203866FFF75FFC022DF9
:101E600005460DD13068800140F18A80FFF756FCAD
:101E7000401B02284FF00300F4D902B0BDE8F08106
:101E80003068800173D5FFF749FC401B02284FF0F2
:101E90000300F5D9F1E700BF00210160FFF73EFC28
:101EA000054600BF306880077FF51DAFFFF736FCA1
:101EB000401B02284FF00300F4D9DEE720F00100B8
:101EC0003067306F002920F0040030677AD0FFF7C8
:101ED00025FC054641F28837306F800700F1848089
:101EE000FFF71CFC401BB842F6D9032002B0BDE846
:101EF000F08100BF20F4803030603068002920F489
:101F0000802030607AD0FFF709FC054630688003F6
:101F10003FF5CAAEFFF702FC401B6428F6D9032048
:101F200002B0BDE8F08100BF7068E16900F4800292
:101F30008A4221D1216A00F03F028A421CD147F631
:101F4000C071626A0140B1EB821F15D1A16A4FF6E0
:101F5000FF73C903994300F44032A1F580318A42EE
:101F60000AD1E16A00F07060B0EB016F04D100208B
:101F700002B0BDE8F08100BF012002B0BDE8F081F1
:101F800004F11C052FCD084340EA8210D9034FF617
:101F9000FF729143A1F5803140EA0560084370600B
:101FA00001203866FFF7BAFB044600BF30688001A5
:101FB000DDD4FFF7B3FB001B02284FF00300F5D977
:101FC0005BE700BFFFF7AAFB054641F2883700BF79
:101FD000306F800708D5FFF7A1FB401BB8424FF0D8
:101FE0000300F5D949E700BFB8F1000F3FF581AE16
:101FF000306C20F0805030647BE600BFFFF78EFB32
:10200000054600BF306880037FF54EAEFFF786FBC4
:10201000401B64284FF00300F4D92EE7411E002036
:10202000B0EB116F1CBF012070474EF21002CEF2D0
:10203000000251604EF62351CEF20001F0230B70E6
:102040000721906011607047002804BF012070478D
:1020500010B5044690F8410028B9002084F84000EB
:10206000204600F021F8242084F841002068C1684F
:1020700021F40051C160204600F0E8F820680169B1
:1020800021F490410161416921F02A014161C16857
:1020900041F40051C16000202021606484F84110A7
:1020A00084F84210606310BD80B586B041F2000133
:1020B0000068C4F20101002288420592CDE90322A2
:1020C0000292019202D006B080BD00BF43F63000FC
:1020D0000092C4F20200436943F010034361436974
:1020E00003F010030093009B0092036843F0010388
:1020F0000360006800F00100009000984FF4C06099
:1021000001900220CDE902020320049007200590EF
:1021100001F5704001A9FFF72BFA06B080BD000061
:10212000FEE7000070B586B0002543F63000059547
:10213000CDE90355CDE901550095C4F202000168CF
:1021400040F2004441F0800101600168C4F20204E1
:1021500001F080010091009900950168002241F092
:10216000010101600168102601F001010091009950
:102170000095016841F0020101600068102100F043
:102180000200009000982046FFF7C2FA0120CDE936
:10219000020501A9204601960495FFF7E9F906B06A
:1021A00070BD000080B540F2781045F20041C2F2E7
:1021B0000000C4F2000141F6802200234FF4804C5D
:1021C000C0F2060280E80E00C0E9033CC0E9053316
:1021D000C0E90733FFF7A8FA002808BF80BDBDE8B3
:1021E0008040FFF7ADB9000080B540F2CC1041F25D
:1021F0000001C2F20000C4F2010100234FF00C0CF8
:102200004FF4E13280E80E00C0E90333C0E905C3B2
:10221000C361FFF719FF002808BF80BDBDE88040FB
:10222000FFF78EB9FEE70000FEE7000070470000F0
:1022300070470000FFF764BB4EF68850CEF20000F6
:10224000016841F47001016070470000B0B50446B8
:10225000006804F108030ECB0569194325F44055C5
:102260002A4302616269E3691143C268194349F272
:102270000C639A431143C1604169A26921F4407122
:1022800041F20043114340F48062C4F201039A42D8
:10229000416103D1FFF7A0FC02E000BFFFF788FC1B
:1022A000E1694FF69C7563681922C0F6FF75B1F5B8
:1022B000004FA0FB02011FD15A00DB0FFEF71CF8F4
:1022C00048F21F51C5F2EB11A0FB01235A0905F199
:1022D000805302FB0300322303EBC000A0FB01018B
:1022E0004FF4F87000EA111000EB0210C1F3421134
:1022F000084421688860B0BD9A009B0FFDF7FCFF81
:1023000048F21F51C5F2EB11A0FB01235A0902FB51
:102310000500322303EB0010A0FB0101F02000EACE
:10232000511000EB0210C1F343110844216888608A
:10233000B0BD0000FEE7000081B045F21441C4F2D8
:10234000000151F8142C42F4807241F8142C0A68F0
:10235000D20709D10A68D20704BF0A685FEAC272CD
:1023600002D10A68D207F2D0D02241F8042C0A68C0
:10237000920709D40A6892075CBF0A685FEA827212
:1023800002D40A689207F2D54A688DF802200A68DA
:10239000120609D40A6812065CBF0A685FEA026284
:1023A00002D40A681206F2D5002241F8042C0A6809
:1023B000120609D40A6812065CBF0A685FEA026264
:1023C00002D40A681206F2D551F8142C42F4807235
:1023D00041F8142C0A68D20709D10A68D20704BF51
:1023E0000A685FEAC27202D10A68D207F2D0D1222B
:1023F00041F8042C0A68920709D40A6892075CBF66
:102400000A685FEA827202D40A689207F2D551F82C
:10241000142C22F4806241F8142C4A688DF80320B1
:1024200051F8142C42F4806241F8142C0A685206C8
:1024300009D40A6852065CBF0A685FEA426202D4A5
:102440000A685206F2D551F8042CFA23C2F3031C91
:102450001CFB0322027051F8142C42F4806241F8F4
:10246000142C0A68520609D40A6852065CBF0A682E
:102470005FEA426202D40A685206F2D551F8042C8F
:10248000FA23C2F3031C1CFB0322427051F8142CE4
:1024900022F4806241F8142C0A68520609D40A68B2
:1024A00052065CBF0A685FEA426202D40A685206BA
:1024B000F2D551F8042CFA23C2F3031C1CFB0322AF
:1024C000827051F8140C40F4007041F8140C486804
:1024D000800709D54868800744BF48685FEA807074
:1024E00002D548688007F2D401B0704743F6300047
:1024F000C4F20200016841F00201016040F20041B3
:10250000C4F202010A6842F420420A600A6A42F0F8
:1025100088420A624A6842F0C0024A60016941F496
:102520000011016145F20040C4F20000016841F46D
:1025300000410160016821F400410160416841F0FF
:1025400010014160C16941F05001C1611121016276
:10255000016841F0010101607047000092B0FFF78F
:10256000DDF906AC201D2C21FEF760F90220069053
:102570001020002501260A9020460595CDE9035537
:1025800009960C95FFF774FB10B172B6FEE700BF19
:1025900001A80021CDE90165FFF758FA10B172B624
:1025A000FEE700BF40F2000AC4F2020AFFF7BAFDDC
:1025B000FFF7F8FDFFF718FEFFF798FF50460121DF
:1025C0000022FFF7A5F840F2741742F24D7842F26C
:1025D000317906ADC2F20007C0F60008C0F6000966
:1025E0000FE000BF50460121FFF792F87978BA78E2
:1025F000FB7830463C70FDF7F7FE4FF47A70FEF73B
:10260000A3FF2846FFF798FE9DF81A009DF81920B1
:102610007870D3B2BA70821F1038B2FA82F2B0FA70
:1026200080F0520940091E2B4FF0000340EA0200DF
:102630009DF8181038BF012300EA03043878012CF4
:10264000F97005D10028D8D101224646CAE700BF5B
:102650000028D2D000224E46C4E730380A2801D2E2
:1026600001207047002070478A68002A02DC00229F
:10267000FEF7D3BA521E8A604A68C0B2531C4B6040
:102680001070704710B500290AD00878002807D0CC
:1026900005487844FEF758FE002801D0002010BD00
:1026A0000248784410BD0000F6000000EE00000073
:1026B000F1EE100A4FF6FF71C0F2C03120EA0100BE
:1026C00040F04070E1EE100A70470000000000008A
:1026D000000000003031323334353637383941426A
:1026E0004344454640305800303132333435363774
:1026F0003839616263646566403078000400000820
:10270000000000000000000200010000103A747494
:10271000003A7474003A7474000000000000000075
:10272000000102030406070809000000000102037B
:1027300004506F6D7061204F46463A202530326458
:102740003A253032643A253032640D0A00506F6DFC
:102750007061204F4E3A20253032643A2530326481
:102760003A253032640D0A00982800080000002045
:1027700018000000F8010008B02800081800002028
:1027800000080000180200081001000043000000CB
:10279000F8FFFFFF00404040404040404040414182
:1027A0004141414040404040404040404040404026
:1027B00040404040400502020202020202020202C0
:1027C00002020202022020202020202020202002BD
:1027D000020202020202909090909090101010104D
:1027E00010101010101010101010101010101010E9
:1027F000020202020202888888888888080808087D
:102800000808080808080808080808080808080848
:102810000202020240000000000000000000000070
:1028200000000000000000000000000000000000A8
:102830000000000000000000000000000000000098
:102840000000000000000000000000000000000088
:102850000000000000000000000000000000000078
:102860000000000000000000000000000000000068
:102870000000000000000000000000000000000058
:102880000000000000000000000000000000000048
:102890000000000000000000000000000000000038
:1028A0000000000001000000100000000024F400FF
:040000050800019559
:00000001FF
